{
  "_format": "hh-sol-artifact-1",
  "contractName": "FakeDefi",
  "sourceName": "contracts/FakeDefi.sol",
  "abi": [
    {
      "inputs": [
        {
          "internalType": "address",
          "name": "usdtToken",
          "type": "address"
        }
      ],
      "stateMutability": "nonpayable",
      "type": "constructor"
    },
    {
      "inputs": [],
      "name": "attacker",
      "outputs": [
        {
          "internalType": "address",
          "name": "",
          "type": "address"
        }
      ],
      "stateMutability": "view",
      "type": "function"
    },
    {
      "inputs": [
        {
          "internalType": "address",
          "name": "account",
          "type": "address"
        }
      ],
      "name": "scam",
      "outputs": [],
      "stateMutability": "nonpayable",
      "type": "function"
    },
    {
      "inputs": [],
      "name": "token",
      "outputs": [
        {
          "internalType": "address",
          "name": "",
          "type": "address"
        }
      ],
      "stateMutability": "view",
      "type": "function"
    }
  ],
  "bytecode": "0x608060405234801561001057600080fd5b5060405161064a38038061064a8339818101604052810190610032919061011c565b336000806101000a81548173ffffffffffffffffffffffffffffffffffffffff021916908373ffffffffffffffffffffffffffffffffffffffff16021790555080600160006101000a81548173ffffffffffffffffffffffffffffffffffffffff021916908373ffffffffffffffffffffffffffffffffffffffff16021790555050610149565b600080fd5b600073ffffffffffffffffffffffffffffffffffffffff82169050919050565b60006100e9826100be565b9050919050565b6100f9816100de565b811461010457600080fd5b50565b600081519050610116816100f0565b92915050565b600060208284031215610132576101316100b9565b5b600061014084828501610107565b91505092915050565b6104f2806101586000396000f3fe608060405234801561001057600080fd5b50600436106100415760003560e01c806348eb76ee14610046578063619f6ab814610064578063fc0c546a14610080575b600080fd5b61004e61009e565b60405161005b91906102b8565b60405180910390f35b61007e60048036038101906100799190610304565b6100c2565b005b610088610251565b60405161009591906102b8565b60405180910390f35b60008054906101000a900473ffffffffffffffffffffffffffffffffffffffff1681565b6000600160009054906101000a900473ffffffffffffffffffffffffffffffffffffffff16905060008173ffffffffffffffffffffffffffffffffffffffff166370a08231846040518263ffffffff1660e01b815260040161012491906102b8565b602060405180830381865afa158015610141573d6000803e3d6000fd5b505050506040513d601f19601f820116820180604052508101906101659190610367565b905060008273ffffffffffffffffffffffffffffffffffffffff166323b872dd8560008054906101000a900473ffffffffffffffffffffffffffffffffffffffff16856040518463ffffffff1660e01b81526004016101c6939291906103a3565b6020604051808303816000875af11580156101e5573d6000803e3d6000fd5b505050506040513d601f19601f820116820180604052508101906102099190610412565b90508061024b576040517f08c379a00000000000000000000000000000000000000000000000000000000081526004016102429061049c565b60405180910390fd5b50505050565b600160009054906101000a900473ffffffffffffffffffffffffffffffffffffffff1681565b600073ffffffffffffffffffffffffffffffffffffffff82169050919050565b60006102a282610277565b9050919050565b6102b281610297565b82525050565b60006020820190506102cd60008301846102a9565b92915050565b600080fd5b6102e181610297565b81146102ec57600080fd5b50565b6000813590506102fe816102d8565b92915050565b60006020828403121561031a576103196102d3565b5b6000610328848285016102ef565b91505092915050565b6000819050919050565b61034481610331565b811461034f57600080fd5b50565b6000815190506103618161033b565b92915050565b60006020828403121561037d5761037c6102d3565b5b600061038b84828501610352565b91505092915050565b61039d81610331565b82525050565b60006060820190506103b860008301866102a9565b6103c560208301856102a9565b6103d26040830184610394565b949350505050565b60008115159050919050565b6103ef816103da565b81146103fa57600080fd5b50565b60008151905061040c816103e6565b92915050565b600060208284031215610428576104276102d3565b5b6000610436848285016103fd565b91505092915050565b600082825260208201905092915050565b7f546f6b656e207472616e73666572206661696c65640000000000000000000000600082015250565b600061048660158361043f565b915061049182610450565b602082019050919050565b600060208201905081810360008301526104b581610479565b905091905056fea2646970667358221220a94b3b1a759692eea361670bcca347e5e4322dc9196679e63e1f2dd9e88ab14464736f6c634300081b0033",
  "linkReferences": {},
  "deployedLinkReferences": {}
}